:020000040800F2
:10000000F0040020091C0008B91A0008BB1A0008F7
:10001000BD1A0008BF1A0008C11A0008000000003D
:10002000000000000000000000000000C31A0008EB
:10003000C51A000800000000C71A0008C91A000805
:100040003D1C0008411C0008451C0008491C000814
:10005000D71A00084D1C0008511C0008551C000848
:10006000591C00085D1C0008611C0008651C000884
:10007000691C00086D1C0008711C0008751C000834
:10008000791C00087D1C0008811C0008851C0008E4
:10009000891C00088D1C0008911C0008951C000894
:1000A000991C00089D1C0008A11C0008A51C000844
:1000B000DB1A0008A91C0008E11A0008AD1C0008A2
:1000C000B11C0008B51C0008B91C0008BD1C0008C4
:1000D000C11C0008E71A0008C51C0008C91C00085C
:1000E000CD1C0008D11C0008D51C0008D91C000834
:1000F000DD1C0008E11C0008E51C0008E91C0008E4
:10010000ED1C0008F11C0008F51C0008F91C000893
:10011000FD1C0008011D0008051D0008091D000840
:100120000D1D0008111D0008151D0008191D0008EF
:1001300038B5040001D1012032BD00F040F818B9F3
:1001400000F039F800F0AAFBFFE702206870211DDB
:10015000206800F009FA01206870002032BD03D148
:10016000416C41F400414164026842F001020260C6
:10017000002016BD38B5040001D1012032BD00F0C9
:100180001EF818B900F017F800F0E2FBDDE71CB527
:1001900000F007F800F00AF81CBFDFF8B41088423E
:1001A000DDE704460122206800F005BB2068DFF887
:1001B000A41088427047002129702046704704F13E
:1001C0003C0568787047F8B504000E4601D101205F
:1001D000F2BDFFF7F4FF18B9FFF7EDFF00F041FBA8
:1001E0000220687020688168C908C9008160211DEB
:1001F000206800F0B9F92168DFF83C038A688F694C
:100200000B6A0740B0680743B06947EA0027DFF888
:100210002C030740F0680743F06947EA002730697C
:1002200047EA0017306A47EA0037706823F0AA03EC
:100230000343706943EA0013306802438A60206810
:100240008761012021680B6268700020F2BD000008
:1002500000340140002C014010B5044620680169BB
:100260008A0715D5C1688A0712D56FF002020261AC
:1002700001212177806910F0030F204602D000F0A1
:1002800068FB03E000F066FB00F087F800202077B1
:10029000206801694A0715D5C1684A0712D56FF071
:1002A0000402026102212177806910F4407F204618
:1002B00002D000F04EFB03E000F04CFB00F06DF8C4
:1002C00000202077206801690A0715D5C1680A0750
:1002D00012D56FF00802026104212177C06910F085
:1002E000030F204602D000F034FB03E000F032FBA5
:1002F00000F053F80020207720680169CA0615D560
:10030000C168CA0612D56FF0100202610821217778
:10031000C06910F4407F204602D000F01AFB03E0D1
:1003200000F018FB00F039F8002020772068016900
:10033000CA0708D5C168CA0705D56FF00102026176
:10034000204600F008FB206801690A0608D5C1684C
:100350000A0605D56FF080020261204600F0FCFA23
:10036000206801694A0608D5C1684A0605D56FF0BC
:1003700040020261204600F0F0FA206801698A0616
:100380000AD5C1688A0607D56FF0200202612046AF
:10039000BDE8104000F0E2BA10BD204600F0DFBA20
:1003A00070B500F065F801D1022070BD00F067F86B
:1003B00032B1042A17D0082A28D00C2A39D04AE0B2
:1003C0003068294600F00AF93068816941F0080177
:1003D00000F04AF821F00401816131688A692869D6
:1003E00002438A6137E03068294600F020F930681E
:1003F000816941F4006100F037F821F4806100F078
:1004000033F82A6941EA0221816124E030682946F3
:1004100000F03DF93068C16941F0080100F020F8B2
:1004200021F00401C1613168CA6928690243CA61C7
:1004300011E03068294600F05CF93068C16941F488
:10044000006100F00DF821F4806100F009F82A69DC
:1004500041EA0221C161012060700020207070BD5E
:10046000C1613068C16970478161306881697047D6
:10047000064606F13C040D4620780128704701210C
:10048000217002206070704738B500F062F801D129
:10049000022032BD01222270022060702A68DFF83B
:1004A00098029368034093600868002837D01028AA
:1004B00037D0202837D0302837D040282BD05028AC
:1004C0001ED0602820D070280BD0B0F5805F03D0FC
:1004D000B0F5005F0CD02CE028688168C908C9001D
:1004E0000CE000F02DF82868816841F0770105E004
:1004F00000F026F82868816841F48041816018E0A6
:1005000000F023F8502111E0CA684968286800F01B
:100510002EF960210AE000F018F8402106E00021E1
:1005200004E0102102E0202100E03021286800F0E2
:1005300030F914E000000000FCFCFFFF0303FFFFA4
:10054000CB684A68896828682BE1CA6849682868C6
:10055000FEE0054605F13C042078012870470120A3
:1005600060700020207032BDF0B5DFF8D0C1744F4C
:100570000368744C744D754E604518BFB84208D07E
:10058000B0F1804F18BFB04203D0A84218BFA042BC
:100590000DD14A6823F070031343604518BFB84279
:1005A00007D0B0F1804F1CBFB042A84201D0A0429A
:1005B00003D1CA6823F4407313434A6923F08003CC
:1005C0001343036060458A68C2620A68826212BF90
:1005D000B8420969016301214161F0BDF0B5026AC9
:1005E000564F574E520852000262056A43688469AA
:1005F00000F079F825F002051543B84218BFB04263
:1006000007D1CA6825F008051543B84225F004054E
:1006100001D0B04205D14A6923F4407313438A697B
:10062000134343608461496841630562F0BDF0B5DE
:10063000026A424E22F010020262B042056A43682A
:1006400084690A6824F4E64444EA02248A6825F0AE
:10065000200545EA02153A4A18BF904208D1CF68F2
:1006600025F0800545EA0715B04225F0400501D088
:10067000904206D14E698A6923F44063164343EAE7
:10068000860343608461496881630562F0BDF0B50B
:10069000026A2A4E22F480720262056A4368C469C3
:1006A00000F021F825F4007545EA0225244AB042FD
:1006B00018BF904208D1CF6825F4006545EA0725A8
:1006C000B04225F4806501D0904206D14E698A6916
:1006D00023F44053164343EA06134360C461496858
:1006E000C1630562F0BD0A6824F0730414438A688C
:1006F000704770B5026A114E22F480520262B04215
:10070000046A4268C3690D6823F4E64343EA05239B
:100710008D6824F400541CBF094EB04244EA0534ED
:1007200004D14D6922F4804242EA85124260C361DD
:1007300049680164046270BD8800FFFF002C01401D
:1007400000340140000C004000080040000400405C
:1007500010B5036A046A64086400046223F00A03A3
:10076000846924F0F00444EA021484612CE010B59A
:10077000036A23F0100303628369046A23F470435D
:1007800043EA023324F0A004836144EA01140462C2
:1007900010BD826822F07002114341F007018160B0
:1007A000704710B5846824F47F442143114341EA23
:1007B0000321816010BD10B5036A01248C40A3435E
:1007C000036202FA01F1036A1943016210BD0000DD
:1007D00080B55848016841F001010160026802F0EB
:1007E000010200920099416841F0805141604068E7
:1007F00000F0805000900098032000F0C0F8002224
:1008000000216FF00B0000F0C7F8002200216FF00C
:100810000A0000F0C1F8002200216FF0090000F08A
:10082000BBF8002200216FF0040000F0B5F80022B0
:1008300000216FF0030000F0AFF8002200216FF0FC
:10084000010000F0A9F8002200214FF0FF3000F075
:10085000A3F83948016821F0E06141F000710160BE
:1008600001BD0068B0F1804F00D0704718B5334823
:10087000334C85B0016841F001010160012100683D
:1008800000F001000090022200980191029204926F
:1008900001A9204600F0D8F8022040E081B00068AD
:1008A0002849884209D12548016841F004010160C6
:1008B000006800F004000090009801B070470068E4
:1008C0002049884200D07047F8B5C021022000912D
:1008D0000190039069461C4800F0B6F805B000BDD1
:1008E00000681A49884200D0704718B51148144C66
:1008F00085B0016841F4804101604FF400710068E7
:1009000000F480400090022200980191032004909E
:10091000029201A9204600F097F84FF48060002170
:10092000019002910391204601A900F08DF806B0D4
:1009300010BD000018100240040001401C100240CD
:100940000008014000080040000C01400038014050
:1009500070477047704770477047704770477047DF
:100960000901020081B006D52F4A00F00F001044A3
:1009700000F8041C01E02D4B195401B070472C4ABB
:1009800013684FF6FF0100020B4000F4E0601843CB
:10099000284908431060704738B5254B1C68C4F3DC
:1009A0000223C3F10704052C28BF04241D1D072DB5
:1009B00034BF0023DB1E012505FA04F4641E214028
:1009C000994005FA03F35B1E1A401143BDE8344019
:1009D000C6E7012200F01F01174BFFE78A404009DC
:1009E00043F82020704710B5401EB0F1807F01D33E
:1009F000012010BD114C60600F214FF0FF30FFF758
:100A0000AFFF0022A26007202060002010BD042854
:100A10000A4904D1086840F00400086070470A6879
:100A200022F004020A60704718ED00E000E400E0E4
:100A30000CED00E00000FA0500E100E010E000E04D
:100A400000F000B8704700002DE9F84F83460F46CC
:100A5000002080466549664A664B4FF00F094FF00B
:100A6000010A3C680AFA08F606EA040EB64540F0A8
:100A7000AE807C683CB3012C1AD0022C1DD0032C14
:100A80002ED0112C16D0122C1AD05B4DAC421CBFAC
:100A90005A4DAC4217D05A4DAC421CBF594DAC42D6
:100AA00011D0594DAC421CBF584DAC420BD018E090
:100AB000F86816E0F868001D13E0F868083010E0E8
:100AC000F8680C300DE0B86808B9042009E0012886
:100AD00019BF0820CBF814600820CBF8106000E0A4
:100AE0000020BEF5807F03D2DC464FEA880404E094
:100AF000A8F108040BF1040CA400DCF8005009FA7A
:100B000004F6B54300FA04F42C43CCF800407C68AA
:100B1000E4005CD51C6844F001041C604FEA980CAA
:100B20001D6805F001050095009C52F82C604FEA05
:100B3000880404F00C0409FA04F526EA0505344E8D
:100B4000B34508BF002618D0324EB34508BF012672
:100B500013D0314EB34508BF02260ED02F4EB345F9
:100B600008BF032609D02E4EB34508BF042604D083
:100B70002C4EB3450CBF0526062606FA04F42C437A
:100B800042F82C406FEA0E067C68E50304D50D6838
:100B90004EEA05050D6002E00C6834400C607C688C
:100BA000A5034C684CBF4EEA040434404C607C689A
:100BB000E5028C684CBF4EEA040434408C607C68CB
:100BC000A502CC684CBF4EEA04043440CC6008F166
:100BD0000108B8F10F0F7FF644AFBDE8F18F81B087
:100BE00002B90904016101B070470000000401402E
:100BF00008000140181002400000111000001210FF
:100C000000002110000022100000311000003210FE
:100C100000080140000C0140001001400014014098
:100C200000180140001C01402DE9F8430646DFF89A
:100C30009C543078C1074AD5686800F00C0004283D
:100C400007D0686800F00C0008280BD16868C10361
:100C500008D5296888033AD57068002840F0C0801C
:100C6000012069E17068B0F5803F0FD038B929687C
:100C700021F480312960286820F4802009E0B0F553
:100C8000A02F296807D141F480212960286840F409
:100C90008030286006E021F4803129602A6822F43F
:100CA00080222A60706868B100F030FA0446296832
:100CB000880300F1958000F029FA001B6528F6D31F
:100CC000032039E100F022FA04462868810340F14C
:100CD000878000F01BFA001B6528F6D3F0E700F0D0
:100CE00015FA001B022840F2AA80E9E7306970B1CA
:100CF0000121396000F00AFA04462868810700F1F2
:100D0000DC8000F003FA001B0228F6D9D8E738602F
:100D100000F0FCF904462868810765D500F0F6F973
:100D2000001B0228F7D9CBE7086000F0EFF9044672
:100D3000686A810777D500F0E9F9001B0228F7D926
:100D4000BEE708B9286A09E00528286A06D140F0FC
:100D500004002862286A40F0010005E040084000D5
:100D60002862286A20F00400286241F28938F0687D
:100D700068B100F0CBF98146286A810700F1AA80AA
:100D800000F0C4F9A0EB09004045F5D398E700F066
:100D9000BDF98146286A810740F19C8000F0B6F9D0
:100DA000A0EB09004045F5D38AE700F0AFF9001B3E
:100DB000022840F2A28083E700F0A8F9001B022875
:100DC00040F2B5807CE700F0B9F80446286881015C
:100DD00040F1B18000F09AF9001B0228F6D96FE7C4
:100DE0003078DFF8F47281071BD5686810F00C0FBB
:100DF00009D0686800F00C0008287FF477AF6868B5
:100E0000C1033FF573AF2968880703D5306901280E
:100E10007FF426AF2968706921F0F80141EAC0012A
:100E20002960317808071DD5B069DFF8B0120028B5
:100E30003FF47AAF01220A6000F068F90446686A5C
:100E400081077FF54CAFDFF888120868C0084FF4BF
:100E50007A72B0FBF2F2009200BF0098411E0028A7
:100E60000091F9D13078410739D5E8690024C100F3
:100E700009D4E86940F08050E8610124E86900F095
:100E8000805000900098DFF85882D8F80010C8050C
:100E90001BD4D8F8000040F48070C8F8000000F0BF
:100EA00035F98146D8F80010C8050ED400F02EF9A7
:100EB000A0EB09006528F5D302E72868716920F0E6
:100EC000F80040EAC1002860ABE7F06801287FF431
:100ED00038AF3FE71CB1E86920F08050E861F06965
:100EE00048B3696801F00C0108293FF4B9AE022843
:100EF0007FF469AF00F022F80446286881013FF5CD
:100F000054AF306AB0F5803F05D16968B06821F40C
:100F10000031014369606968306A21F4741101434A
:100F2000706A01436960012000F009F804462868EE
:100F300081017FF541AF0020BDE8F28300203866D3
:100F400000F0E4B82DE9F843664F05463868894655
:100F500000F00700484502D200F07AF86CD12978F9
:100F60005A4C880705D56168A86821F0F001014353
:100F700061602878C10757D56868012802D12168C7
:100F80008A0303E0022803D121688A0103D453E0D5
:100F90002268910750D56168890840EA8100606045
:100FA00041F2893800F0B2F80646686801280BD192
:100FB000606800F00C00042836D000F0A7F8801B11
:100FC0004045F5D303202DE0022837D1606800F0BA
:100FD0000C00082828D000F099F8801B4045F5D374
:100FE000F0E72878410705D56168E86821F4E061F9
:100FF000014361602878010706D56068296920F4FB
:10100000605040EAC100606000F02CF86268364928
:10101000C2F30312895C2E4AC8401060002000F021
:101020007BF80020BDE8F283386800F007008145B6
:10103000D7D200F00DF8D4D00120F3E7606810F0AB
:101040000C0FF1D000F062F8801B4045F6D3B9E7F1
:101050003968C90849EAC1013960386800F00700F9
:101060004845704721491B480A6802F00C03082BC9
:1010700000D0704710B500BF1FA4C2F38343D20352
:10108000E35C09D5096800BF1FA2C1F34041584382
:10109000515CB0FBF1F010BD18461549484310BD36
:1010A0000B48006870470A48104A006813681149E5
:1010B000C3F3022206E006480C4A006813680D4993
:1010C000C3F3C222895CC840704700000010024090
:1010D0000C00002000127A000000424280044242CC
:1010E0000070004000200240A81A000804100240CE
:1010F00000093D00341C0008020304050607080926
:101100000A0B0C0D0E0F1010010200000148406880
:10111000704700BF0000002038B50D4D0D4A2978FA
:1011200004464FF47A70B0FBF1F11068B0FBF1F0B7
:10113000FFF759FC50B9102C08D2002221464FF07D
:10114000FF30FFF729FCAC60002032BD012032BD2A
:10115000000000200C0000202068C16841F400510C
:10116000C1600020686020206870A870002070476F
:10117000242068702068C16821F40051C1602046B5
:1011800000F041B904F138056878704700212970F2
:101190002046FFF7A5BBF8B504000E46174601D15F
:1011A0000120F2BDFFF7EEFF08B9FFF7EFFFFFF7F1
:1011B000DFFF00F010F8416120680169090946EA83
:1011C000011606612068C16821F400610F43C76001
:1011D000FFF7C2FFF2BD2068016921F4904101616F
:1011E0002068416921F02A017047416921F04001DE
:1011F0004161606B704738B5044625682968EA6824
:101200006B6911F00F0007D188065DD590065BD59C
:101210002046BDE83240ABE0D80702D412F4907FFC
:1012200052D0C80705D5D00503D5E06B40F00100CA
:10123000E063480705D5D80703D5E06B40F002000E
:10124000E063880705D5D80703D5E06B40F00400BC
:10125000E063080705D5D80703D5E06B40F0080028
:10126000E063E06B00286ED0890604D5900644BF89
:10127000204600F07DF820684069E16B0A0701D440
:1012800040061BD5204600F05FF8206841694A06F9
:101290000FD5FFF7AAFF60B10FF2C9014163606B80
:1012A00000F026F900284ED0606B416BBDE8344059
:1012B00008472046BDE8324000F0A2B9204600F0C1
:1012C0009FF90020E06331BD08062CD510062AD511
:1012D00094F83900212836D1A168206AB1F5805FE1
:1012E0000DD10188C1F308016960206918B9216A2C
:1012F000881C206207E0206A411C216203E0411C37
:10130000216200786860E08C401EE08480B2D0B931
:101310002068C16821F08001C1602068C16841F087
:101320004001C16031BD48060DD550060BD5E868B7
:1013300020F04000E860202184F839102046BDE804
:10134000324000F05EB931BD0168CA6822F4907283
:10135000CA6001684A69520852004A61202180F837
:101360003A107047406A0021C185C18400F048B935
:1013700080B590F83A10222943D18268B2F5805F97
:1013800014D1826A016941B903685968C1F308013F
:101390001180826A911C816218E001684B6803F039
:1013A000FF031380816A4A1C82620FE001690029F1
:1013B000816A04D14A1C82620268536805E04A1CB3
:1013C00082620268536803F07F030B70C18D491E6F
:1013D000C18589B299B90168CA6822F02002CA6041
:1013E0000168CA6822F48072CA6001684A695208BA
:1013F00052004A61202180F83A1000F003F90020E1
:1014000002BD022002BD2DE9F04704466425216893
:101410000A69E06822F4405202430A611926CA6848
:1014200031480240A06802432069024360690243D8
:10143000CA604A69A06922F4407202432B484A619B
:1014400081420ED1FFF737FE0746FFF734FE804694
:10145000FFF731FE8146FFF72EFE8246FFF72BFE97
:101460000DE0FFF720FE0746FFF71DFE8046FFF761
:101470001AFE8146FFF717FE8246FFF714FE06FBB1
:1014800009F9616889007743B7FBF1F206FB08F7B9
:10149000B7FBF1F3B9FBF1F7B7FBF5F705FB173332
:1014A0001B013233B3FBF5F3B2FBF5F203F0F003AB
:1014B00003EB021306FB0AF74643B7FBF1F2B6FB58
:1014C000F1F06421B0FBF1F005FB10252D01323560
:1014D0006420B5FBF0F0216800F00F00C3188B60AA
:1014E000BDE8F08700000000F3E9FFFF003801408D
:1014F000F8B590F821200024022A00F1340103D02D
:101500000420486001245FE00268DFF8C4601368CB
:1015100023F00E0313604FF48077026815686D089E
:101520006D0015604FF480320368B3424FF480556C
:1015300019D9DFF89860B34208BF012210D0DFF854
:101540009460B34208BF10220AD0DFF88C60B34227
:1015500008BF3A4604D0DFF88460B34208BF2A4689
:10156000DFF87C3027E0DFF87CC063451CD0DFF873
:1015700078C063451AD0DFF874C0634518D0DFF82F
:101580007070BB420EBF2A46DFF86850AB4210D0E5
:10159000DFF86450AB4208BF4FF4801209D0B34269
:1015A00007D14FF0807204E0012202E0102200E037
:1015B0003A46DFF848301A60012280F8212080F88E
:1015C0002040096801B188472046F2BD0804024066
:1015D000800002401C0402403004024044040240E7
:1015E00004040240080002401C0002403000024097
:1015F00044000240580002406C00024004000240D7
:10160000704770477047000018B58BB000F028F99C
:1016100000F08FF889488A4C016841F02001016090
:10162000026802F0200200920099016841F0040172
:101630000160026802F00402009200220099016831
:1016400041F0080101604FF40071006800F00800EB
:10165000009000982046FFF7C2FA4FF40070012175
:10166000019002910020022103900491204601A9DB
:10167000FFF7EAF9734C4FF080402064002100200E
:101680006064A06403914FF6FF70E0640591002050
:101690002065A06506910320029007910120049027
:1016A000089009910A9104F1400002A9FEF78BFD10
:1016B00000F0D0F804F14000694600F0E3F800B112
:1016C000FEE76148206000224FF4E13060600021B5
:1016D0000020A060E06020610C2060610020A0611B
:1016E000E0612046FFF757FD00B1FEE700F05AF831
:1016F000002200210420FFF74FF90420FFF769F9C9
:10170000002200211C20FFF747F91C20FFF761F998
:10171000002200212520FFF73FF92520FFF759F986
:10172000002200211E20FFF737F91E20FFF751F994
:10173000FEE700B500218FB001200791059002213E
:101740000C914FF48030069001220D904FF4E0117F
:1017500009920E9105A8FFF767FA00B1FEE70F2185
:1017600002200091019000214FF4806002910390CB
:10177000049168460221FFF7E5FB00B1FEE7FFF7A1
:101780008FFC4FF47A71B0FBF1F0FFF72CF90420D5
:10179000FFF73DF9002200214FF0FF30FFF7FCF882
:1017A0000FB000BD294818B5294C20602C2060607E
:1017B0008DB00020A060C820E06000202061A06102
:1017C0002046FEF7B5FC00B1FEE74FF480500990CB
:1017D00009A92046FEF758FE00B1FEE72046FEF7B5
:1017E000C9FC00F037F82046694600F04BF800B11C
:1017F000FEE760200290C82100200391049006902B
:10180000002202A92046FEF7CBFD00B1FEE70F2023
:101810000390042202A92046FEF7C2FD00B1FEE7B4
:101820002046FFF74CF800212046FEF7B0FC0421CB
:101830002046FEF7ACFC0EB010BD000018100240B0
:10184000000C01401000002000380140000800405A
:101850009000002000B1FEE7002100900191704748
:1018600080B50748016841F0100101600320FFF7CF
:1018700086F80020FFF750FCFEF7AAFF002002BD0B
:101880000020024030B500F13C031A78012A01D152
:10189000022030BD01241C7002225A700268546874
:1018A00024F070045460046865680A681543656034
:1018B0000268946824F08004946002689468486820
:1018C00004439460012058700020187030BD00005F
:1018D000F8B5564D534C2868C1064FF0FF3602D478
:1018E0002968480708D5A768A66000F077F8384649
:1018F00000F09FF8002020702868810656D520212E
:1019000029602078002851D02178012918D16068F9
:10191000401E6060606868B1A06800F089F8A06847
:1019200000F50060A060696821F00201696000F0C4
:1019300081F83BE0A6602070304600F079F835E091
:101940002078022807D1696821F00401696000202D
:1019500000F06EF828E06068401E60606068A8B122
:10196000A168891CA160A068D4E90423120C42EA92
:1019700003421B0CC4E904236968490849006960F3
:10198000D4E9042391B200F01EF80FE02078032878
:1019900008BFA06805D020780428A0680CBF801E6E
:1019A000801F00F045F8A66000202070207848B91C
:1019B0006968C908C90069600021686820F4A050FE
:1019C00068602176F1BD10B5164B0022DA61164A27
:1019D000146844F001041460018010BD10B5134A6E
:1019E000104913680020DC0604D5C86940F00200E5
:1019F000C861102013685C0705D5CB6943F001036B
:101A0000CB6140F004001369DC0707D5CB6943F0D4
:101A10000403CB611169490849001161106010BDD0
:101A200000000000D0000020102002400C200240E6
:101A300070477047074A0021D16107490B6843F09E
:101A400002030B604860086840F04000086070477F
:101A500000000000D0000020102002400E4908685D
:101A600040F0010008604A680C4802404A600B6878
:101A70000B4803400B60086820F4802008604FF496
:101A80001F004A6822F4FE024A6088604FF000603E
:101A90000449086070470000001002400000FFF891
:101AA000FFFFF6FE08ED00E000000000000000006F
:101AB00001020304060708097047FEE7FEE7FEE798
:101AC000FEE770477047704780B500F015F8BDE835
:101AD0000140FEF7B5BFFFF7FBBE0448FEF7BCBBF5
:101AE0000348FEF7B9BB0348FFF785BB5000002051
:101AF000900000201000002002494A6808788218EF
:101B00004A6070470000002019E050F8042BD3070A
:101B100044BFA9F101039A18091F0023042942F8C0
:101B2000043BF9D25FEA817C134604D54FF0000CE8
:101B3000A2F800C09B1CC90744BF0021197050F8CF
:101B4000041B0029E1D1704710B450F8041B79B18F
:101B50000268436802440830DC0744BFA9F101046D
:101B6000E31852F8044B43F8044B091FF9D1ECE792
:101B700010BC704710B5074979441831064C7C44B5
:101B8000163404E00A68081D114488470146A14242
:101B9000F8D110BD08000000280000006DFFFFFF15
:101BA000E000000010000020000000009DFFFFFF8B
:101BB0001000000064000000000000200000000091
:101BC00000F00DF8002801D0FFF7D4FFAFF300803C
:101BD0000020AFF30080FFF717FD00F002F80120AE
:101BE000704700F001B800000746384600F002F8E0
:101BF000FBE7000080B5AFF30080024A1100182017
:101C0000ABBEFBE7260002000148804701480047C1
:101C10005D1A0008291C00080100000000000000F7
:101C20001000000000A24A04AFF30080AFF3008070
:101C3000FFF7C6FF0000000001020304FFF7FEBF2C
:101C4000FFF7FEBFFFF7FEBFFFF7FEBFFFF7FEBFC8
:101C5000FFF7FEBFFFF7FEBFFFF7FEBFFFF7FEBFB8
:101C6000FFF7FEBFFFF7FEBFFFF7FEBFFFF7FEBFA8
:101C7000FFF7FEBFFFF7FEBFFFF7FEBFFFF7FEBF98
:101C8000FFF7FEBFFFF7FEBFFFF7FEBFFFF7FEBF88
:101C9000FFF7FEBFFFF7FEBFFFF7FEBFFFF7FEBF78
:101CA000FFF7FEBFFFF7FEBFFFF7FEBFFFF7FEBF68
:101CB000FFF7FEBFFFF7FEBFFFF7FEBFFFF7FEBF58
:101CC000FFF7FEBFFFF7FEBFFFF7FEBFFFF7FEBF48
:101CD000FFF7FEBFFFF7FEBFFFF7FEBFFFF7FEBF38
:101CE000FFF7FEBFFFF7FEBFFFF7FEBFFFF7FEBF28
:101CF000FFF7FEBFFFF7FEBFFFF7FEBFFFF7FEBF18
:101D0000FFF7FEBFFFF7FEBFFFF7FEBFFFF7FEBF07
:0C1D1000FFF7FEBFFFF7FEBFFFF7FEBFAE
:0400000508001C29AA
:00000001FF
