:020000040800F2
:1000000008060020BD3F0008793E00087B3E00083E
:100010007D3E00087F3E0008813E00080000000091
:10002000000000000000000000000000833E000807
:10003000853E000800000000873E0008893E000859
:10004000E73F0008EB3F0008EF3F0008F33F0008E0
:10005000973E0008F73F0008FB3F0008FF3F0008FD
:1000600003400008074000080B4000080F4000084C
:1000700013400008174000081B4000081F400008FC
:1000800023400008274000082B4000082F400008AC
:1000900033400008374000083B4000083F4000085C
:1000A00043400008474000084B4000084F4000080C
:1000B0009B3E000853400008A13E0008574000083E
:1000C0005B4000085F40000863400008674000088C
:1000D0006B400008A73E00086F400008734000080E
:1000E000774000087B4000087F40000883400008FC
:1000F000874000088B4000088F40000893400008AC
:10010000974000089B4000089F400008A34000085B
:10011000A7400008AB400008AF400008B34000080B
:10012000B7400008BB400008BF400008C3400008BB
:100130002DE9F84F74A7A2B0D7E90045CDE90045F5
:100140002C9EDFF8307C04918DF843605FF0000155
:100150006FA40D9112944FF0FF3682469046994657
:100160000FE0C3462C461BF8011B0498D04700281B
:10017000049000F0B2800D98401C641E0D90F2D1E6
:10018000A84498F80000252807D10021079108917C
:1001900009910A910B910C910DE06A463146404657
:1001A00000F0D0FF050001D10D98B5E0D9D50125AB
:1001B000E6E741F0010118F8010F2028F9D02328C3
:1001C0000CD02B2804D02D2805D0302809D086E06B
:1001D00041F00201EFE741F00401ECE741F00801D2
:1001E000E9E741F01001E6E700200F900AE00F98E0
:1001F000B84205DA00EB800302EB4302303A0F927B
:1002000008F1010898F80020A2F130000A28EED386
:1002100098F800002E2818BF0E9629D118F8010F63
:100220002A280BD1D9F80000C9F8000008F101080C
:1002300050F8042BC9F800000E9219E02D280CBFCD
:1002400018F8010B002000220E920BE040B90E9A24
:10025000BA4205DA02EB820403EB4403303B0E930F
:1002600008F1010898F80030A3F130020A2AEDD312
:10027000ADF84010129898F8001000F06DFF08B12A
:1002800018F8010B8DF842009DF84200682804BF61
:1002900098F80010682903D162208DF8420008E028
:1002A0006C2804BF98F800006C2804D171218DF8E7
:1002B000421008F1010813A806904A4618F8013BBD
:1002C00002A9504600F068F838B913AA02A95046AE
:1002D00000F0CAF900287FF554AF30461CE02A2808
:1002E00082D1D9F80020C9F8002052F8040BC9F8CF
:1002F000002000280F9003D540420F9041F00401E8
:1003000008F1010884E70000000000000000000080
:10031000686A6C747A4C000023B0BDE8F08F6228E4
:1003200020D0682811D06A2803D06C2827D07128E3
:1003300025D10868C01D20F007000860D0E900231F
:1003400008300860194610467047002A0A680A609B
:10035000106803D0121D0A6000B217E0121D0A6077
:1003600080B217E0002A0A680A60106803D0121DE4
:100370000A6040B20AE0121D0A60C0B20AE0002A18
:100380000A680A60106803D0121D0A60C11770471E
:10039000121D0A60002170477CB50D4611461C46AF
:1003A0002E69B4F1250200F04D811C3A00F08680E0
:1003B000121F022A40F282800E3A00F00781521F7B
:1003C0005AD0093A7AD0921E16D0521E35D0521EFB
:1003D000022A73D9121F30D0521F00F09A80521E89
:1003E0004AD0521E00F0E480D21E00F0FD80921E22
:1003F00042D0D21E40D02BE195F83A206C2A09D089
:100400006869421C6A610A680A6052F8043B0A6023
:10041000335427E10A680A6052F8043B0A6000215D
:10042000009301914FF0FF322A6329466A4600F09B
:1004300096F9002840F1168101E195F83A00012271
:10044000FFF76DFFC5E900010023994204DA6869EE
:10045000411C69612D210DE0288F810704D5686951
:10046000411C69612B2105E0C00722D56869411C48
:100470006961202131541CE095F83A000022FFF711
:100480004EFFC5E9000195F83800010711D5D5E9FF
:1004900000230020834208BF82420AD044F020009B
:1004A000782806D1686930213154401C411C6961AB
:1004B0003454214668693044E86083E00868C01D10
:1004C00020F007000860D0E9002308300860C5E983
:1004D0000023D5E90001C80F04D06869411C696197
:1004E0002D210DE0288F810704D56869411C6961C1
:1004F0002B2105E0C00704D56869411C69612021F2
:10050000315468693044E8602146284600F032FAE8
:10051000A8E005F13A02507820B14FF0FF340FF611
:10052000243070E01078622808D0682824D06A2827
:1005300012D06C282ED071280ED02BE00A680A60E9
:1005400052F8040B0A6020B94FF0FF340FF60C305C
:1005500059E0E96A017085E00A680A6052F8040B04
:100560000A6020B94FF0FF340FF6F0204BE0EA6A42
:10057000D317C0E9002375E00A680A6052F8040B3B
:100580000A6020B94FF0FF340FF6D0203BE0E96A53
:10059000018067E00A680A6052F8040B0A6020B91B
:1005A0004FF0FF340FF6B4202DE0E96A016059E006
:1005B0000A680A6052F8040B0A600021C5E90001CC
:1005C000EE607821284600F029F94BE06C2285F88E
:1005D0003A200B680B6053F8042B0B6052BB4FF0B2
:1005E000FF340FF6AC200EE095F83A206C2AF0D0DC
:1005F0000868086050F8044B0860EC603CB94FF0A4
:10060000FF340FF6702000F0BFFD201A76BD2E6B70
:10061000002E04D5204600F0D7FD044608E03246FF
:100620000021204600F0ECFD002814BF041B3446D6
:10063000AC6117E0294600F092F8002812D54FF07F
:10064000FF3076BD6869411C69612521315409E09C
:100650006969481C686125227254210002D0411C3E
:1006600069613454002076BD2DE9F0410E460546FF
:10067000716B7069B46A091A306A091AB069091A8B
:10068000706A091AF069091A96F838000C1B4107BC
:1006900090460DD4002C0BDD2746B0682021A847DA
:1006A0000028B06057D0F06A401C7F1EF062F4D181
:1006B000736942463146284600F0ACFC00284AD116
:1006C000376A002F0ADDB0683021A8470028B060E3
:1006D00041D0F06A401C7F1EF062F4D1B369F26829
:1006E0003146284600F096FCA8BB776A002F09DD4A
:1006F000B0683021A847B06068B3F06A401C7F1E24
:10070000F062F5D1F068B169F369421831462846C4
:1007100000F080FCF8B9B76A002F09DDB06830211D
:10072000A847B060B8B1F06A401C7F1EF062F5D1F6
:1007300096F8380041070BD5002C09DDB068202160
:10074000A847B06038B1F06A401C641EF062F5D171
:100750000020BDE8F0814FF0FF30BDE8F0812DE9C9
:10076000F8470D46A3B02F6B002F8146904648BF37
:100770006FF0004700F070FD696B40180FF62C1108
:100780008128D1E90023CDE9012328BF4FF0FF30B4
:100790003ED20024002F2FDDD8F8001001AA6846B1
:1007A00000F0D2FC0646002E35D4D8F8000008B977
:1007B000761E30D4B7421FDB6869301881280AD30F
:1007C0000020686303AA29464846FFF74DFF04004E
:1007D00012D40020686103A8D5F814A032466946F7
:1007E000504400F03FFDB244C5F814A058F8040B83
:1007F000002818BFBF1BCDD12CB903AA29464846F3
:10080000FFF732FF044614B9002068616863204690
:1008100024B0BDE8F0874FF0FF34F8E72DE9FC473E
:1008200007468A463E69BAF16F0F08BF082405D013
:100830004AF02001782914BF0A2410243C25D7E966
:100840000023BAF1640F18BFBAF1690F90469946B8
:1008500006D100218B4203DAD8F1000869EB49097F
:100860000020814508BF80451FD1386BE8B9082CAE
:100870004CD197F83800010748D530203B2586F841
:100880003B0043E000280ED597F8380000F0140034
:10089000102808D17A6B7869121A386A121A511A1C
:1008A0000029C8BF3962BDE8F3878DF800A0404633
:1008B00049462246E31700F029FD3032D0B26D1EC2
:1008C0003A28019504DB9DF80000A0F151018A1837
:1008D0007255404649462246E31700F017FD804610
:1008E00089460020814508BF804503D0F86871190A
:1008F0008842DCD3082C09D197F83800010705D5C8
:10090000715D302902D06D1E30207055C5F13C015B
:10091000B9617019F860386B8142B3DA411A3962F3
:100920004FF6EF70398F01403987BDE8F3872DE925
:10093000D04306460F4614464FF00008DFF83894BF
:1009400012E0E00707D542464B463046394600F0F4
:10095000F5FD06460F464046494642464B4600F0E6
:10096000EDFD641080468946002CEAD130463946B8
:10097000BDE8D0832DE9F34F054641F020048DB04A
:10098000D5E90089612C02AE09D0286B002848BF48
:10099000062003D408BF672C01D101202863D5E9C4
:1009A000002358004015401C0ED119030CD0032021
:1009B000A8619DF8380061381A2802D20FF2F4615C
:1009C00011E00FF2F4610EE058004015401C0FD109
:1009D00019030DD10320A8619DF8380061381A2849
:1009E00014D30FF2DC61E868032200F03BFCD3E192
:1009F000194621F00043B3F5801F10460DD20027A1
:100A0000BB4208BFBA42019703D111E00FF2AC61BB
:100A1000E9E701AA00F064FE0AE0DFF8607307EB83
:100A20001352DFF85C3301921940DFF85833194351
:100A3000C5E90001612C0ED1E86830210170811CEC
:100A4000E9609DF8381061290CBF78215821417068
:100A50006869801C6861D5E900AB2BF00043002079
:100A60002AF00002834204BF8242002300F05A8130
:100A7000612C40F0A980286B00284CBF2120401C2D
:100A800000904046009F7F1C49460022002300F052
:100A90005FFED94601988DF8082038BF89F00049DB
:100AA000001F0190002FD0460DF1090040F349814D
:100AB00040F2FF71DFF8D0B20C910646404649463D
:100AC0000022002300F05CFE80F03A814800400DD7
:100AD00000F11C0210D0002A0EDD0C98824205DBCA
:100AE00009F0004040EA0B01002013E0A448084050
:100AF00040EA025140460DE029F00043002028F072
:100B00000002834208BF82420FBF40461C2240467B
:100B100000F04EFE8046894600F0E8FEFF1F002FE1
:100B2000044609DD00F000FF02460B4640464946F8
:100B300000F00CFF80468946F01D072104E004F018
:100B40000F0200F8012D2411002C01DD491EF6D5FD
:100B5000491E5CBF002200F8012DF9D5ECE0002011
:100B6000194602AA0A4400E05B1E12F80149491E18
:100B70008442F9D00F2804D10DF10900425C521CC7
:100B80004254002904D50198001D02AE5B1C01905F
:100B9000591E12D49DF838007218147804F13008E8
:100BA0005FFA88F4392CC4BFA0F13A04A044491E6E
:100BB00002F80189F1D58DF83800286B002840F142
:100BC000B080591E2963ACE040464946002200230C
:100BD00000F0BEFD019938BF89F0004947F29750F7
:100BE00041436A4A91FBF2F20192D2F1070204DD1D
:100BF00040464946FFF79BFE0AE052420020644906
:100C0000FFF795FE02460B464046494600F010FFAE
:100C10008046662C286BDFF87CB106BF019F0A373F
:100C200006273F18142FC8BF142730208DF808005E
:100C300089460DF1090000E03046002F34DD0646FC
:100C40004046494601F018F801460A4606F10803F5
:100C500004200A26B2FBF6F606EB860EA2EB4E0245
:100C6000303203F8012C0A22B6FBF2F202EB820EBC
:100C7000A6EB4E063036401E03F8026DE9D1083F60
:100C8000002F03F10806D7DD084601F009F80246F7
:100C90000B464046494600F059FE00225B4600F0F4
:100CA0004DFC80468946CBE70DF10901401A0DF154
:100CB000090604E00199491E401E0191761C317815
:100CC0003029F7D0662C02D10199491C03E0652C2C
:100CD0000CBF012100212B6BCB189842B8BF431EDB
:100CE000002B1ED4834204DAF05C3528A8BF3920DB
:100CF00000DA30201946721E02EB010800E05B1E8C
:100D000018F80199491E8145F9D0392802D1705C43
:100D1000401C7054002904D50198401C16465B1CE9
:100D20000190019800B200901BB29DF83810324635
:100D3000284600F035F82FE0C61D002F3FF7BEAE65
:100D400030460DF10901401A009903468842C8BF98
:100D50000B46002B0DF109063FF52FAF8342BFF67E
:100D6000FEAE0DF10900C05C07287FF7F8AE0F203A
:100D7000F6E60000CBCCCC0C0000244002FCFFFFC8
:100D8000FFFF0F800000E03F0000F07FA086010021
:100D90000000F03F84D797410FB0BDE8F08F00000E
:100DA0002DE9F84783B006468A461746984600F074
:100DB000CDF9B8F1000F406A356B90F8009002DC75
:100DC0004FF00108BFA7BDF930404AF02000662867
:100DD00008BF641C15D0672840F0848014F1040F0C
:100DE000C0F28680AC4280F2838096F83800641CA2
:100DF000010702D4A845B8BF454620B22D1A48BF06
:100E000000250FFA84FAF068B169BAF1000F25DC09
:100E10004A1C30234354002D03DC96F838000107A8
:100E200003D5F06800F80290521C15EB0A0FB8BF0A
:100E30006C4220B2441941424445B8BFA046B26159
:100E400071620FFA88F5F561F068B3692A46394690
:100E5000184400F007FA641BB462C4E022B2904563
:100E6000084417DA4246394600F0FCF9B0694044BC
:100E7000B061AAEB0801002D716203DC96F838100E
:100E80000A0705D5F16801F80090F069401CF0618F
:100E9000B562A8E0394600F0E5F9B069002D50448C
:100EA000A8EB040803DC96F838100A0703D5F168AC
:100EB00001F80090401CB0610FFA88F08542F0689C
:100EC000B369B8BFA8460FFA88F207EB0A011844C5
:100ED00000F0C8F9B0690FFA88F10844B061681AE7
:100EE000706280E0BAF1610F14D14FF0700A16E021
:100EF000A84504DA96F838100A0758BF45466D1E13
:100F000048BF0025BAF1670F14BF4FF0450A4FF0F4
:100F1000650A04E0BAF1410F08BF4FF0500AB16909
:100F2000F368481CB061002D17F8012B5A5403DCFC
:100F300096F838100A071BD5F168431CB36101F815
:100F40000090002D14DDA8F101080FFA88F0854209
:100F5000F068B8BFA8460FFA88F23946184400F086
:100F600081F9B0690FFA88F108446D1AB0617562B1
:100F7000F068B1690844002C80F800A003D42B214C
:100F80004170811C03E02D2141706442811C0020CE
:100F90006A460AE023460A2493FBF4F404EB840532
:100FA000A3EB450302F8013B401C24B2002CF1DC0A
:100FB000012806DC4AF02002652A04BF302201F82D
:100FC000012B48B9302001F8010B07E0401E1DF845
:100FD0000020303201F8012B0028F7DCF068B269FC
:100FE0001044091AF16196F8380000F01400102836
:100FF0000DD17169B0694118706A4118F0694118E2
:10100000B06A4118706B8142BCBF411A316204B0B2
:10101000BDE8F087F8B505460E4617461C46002089
:1010200074B117F8011BB068A847B06030B1F06A1E
:10103000401CF0620020641EF3D1F2BD4FF0FF307F
:10104000F2BD00007072696E74665F733A20256E9F
:1010500020646973616C6C6F776564007072696E8F
:1010600074663A2062616420256E20617267756D36
:10107000656E74007072696E74665F733A206261A7
:101080006420257320617267756D656E74000000C1
:101090007072696E74665F733A2062616420256CB9
:1010A0007320617267756D656E740000000000004A
:1010B000000000006E616E004E414E00696E6600D9
:1010C000494E46003000B1F5807F02D34FF0FF302B
:1010D00070470170012070470078401E8041C04376
:1010E000C00F70471A48704730B45368D418042BA7
:1010F00009DA41B1057804F8015B10F8015B15B11C
:101100005B1C491EF3E7536030BC704738B514468A
:101110001D4661B1FFF7E8FF61686A6B20469047A2
:101120006FF00102811A02D0491E03D005E06FF072
:10113000010032BD4FF0FF3032BD0021616032BD91
:10114000DA6B1047024BE1E7014BF9E701487047C2
:101150000C010020D40000200278C9B28A421AB1E2
:101160001CBF10F8012FF9E718BF002070478268F4
:10117000521C8260426832B10268531C03601170D5
:101180004168491E4160704780B500B906A0054915
:101190000B681BB122220021984701E000F08DFD71
:1011A000222002BD04020020636F6E7374726169B5
:1011B0006E742068616E646C65723A2062616420AE
:1011C0006D6573736167650000F10103810704D0E9
:1011D00010F8011B89B18107FAD10268B2F101311F
:1011E000914311F0803F04BF50F8042FF6E710F848
:1011F000011B11B110F8011BFBE7C01A704700007A
:10120000C9B2830706D0521E22D310F8013B99427F
:10121000F7D11FE0083A13D302F1040241EA012199
:1012200041EA014150F8043B121F21BF4B40A3F19A
:10123000013C2CEA030C1CF0803FF3D0C9B2001F24
:10124000083210F8013B521E28BF91EA030FF8D86C
:1012500018BF0120401E704780B5FFF743FF006CA8
:1012600002BD000062B38B0708D0521E11F8013B8B
:1012700000F8013B00F024808B07F6D1830740F093
:10128000208000BF103A07D330B4B1E83810103ACC
:10129000A0E83810F9D230BC530724BFB1E80810D9
:1012A000A0E8081044BF51F8043B40F8043BD207C3
:1012B00024BF31F8022B20F8022B44BF0B780370B7
:1012C0007047121F17D35B0009D151F8043B20F877
:1012D000023B1B0C121F20F8023BF6D20BE051F828
:1012E000043B00F8013B1B0A20F8023B1B0C121FB9
:1012F00000F8013BF3D238BF121D521E24BF11F873
:10130000013B00F8013BF8D870470000B3BBD9B1EE
:10131000B2F5803F7DD2022A1ED98C46B1FBF2F194
:1013200002FB11C31B0443EA1043B3FBF2FC02FBB4
:101330001C3380B240EA0343B3FBF2F002FB1032ED
:1013400040EA0C4000237047022A05D98446B0FBCE
:10135000F2F002FB10C270474AB105D100F0010261
:1013600049085FEA3000704700220023704700F010
:10137000A7BC0B000200002100207047904271EBD7
:10138000030CF6D3B3F5803F2FD2F0B5B3FA83F751
:10139000B1FA81F4A7F10F0E3D1B5340CEF12006A8
:1013A00002FA0EF2F3415340B5F10F0746D80F3C55
:1013B0002C444140C4F12006A040F1414140B1FB22
:1013C000F3F603FB1611A2FB0645001BA94102D24E
:1013D000761E8018594180EA010221FA0EF362FA62
:1013E0000EF200215A403046F0BD30B4B1FBF3FCA0
:1013F00003FB1C11A2FB0C45001BA94103D2ACF15D
:10140000010C8018594130BC02460B466046002151
:101410007047B2F1807F65D3F0B5B2FA82F7B1FAC6
:1014200081F4C7F10F063D1B22FA06F307F1110EF6
:10143000F24120355A40B5F10F07B8D94140C4F107
:101440002006A040F1414140B1FBF3FC03FB1C111D
:10145000A2FB0C45001BA94103D2BCF1010C801872
:1014600059410F2F12D30F3FC90341EA5041B1FB3D
:10147000F3F603FB1611A2FB0645D4EBC030A941DD
:1014800002D2761E8018594146EACC3C07B341404F
:10149000C7F12006B840F1414140B1FBF3F603FB30
:1014A0001611A2FB0645001BA94102D2761E801828
:1014B000594180EA010221FA0EF3C7F1200462FAD1
:1014C0000EF20CFA07F05A402CFA04F13043F0BD4A
:1014D00080EA010221FA0EF3002162FA0EF2604660
:1014E0005A40F0BD8C46B1FBF2F102FB11C31B0266
:1014F00043EA1063B3FBF2FC02FB1C331B024CEA11
:10150000002043EA1063B3FBF2FC02FB1C331B0216
:101510004CEA002043EA1063B3FBF2FC02FB1C33ED
:101520001B024CEA002043EA1063B3FBF2FC02FB0F
:101530001C324CEA0020002370470000B0B581EA5D
:10154000030C0CF0004C40F2FF7515EA11541DBF5E
:1015500015EA1357AC42AF4239E0E41923EA455388
:1015600043F48013C90241F0004141EA505EC702D2
:101570001100A7FB020200284FF00000EEFB012043
:101580004FF00001E3FB072118BF42F001024018B1
:1015900000214941E3FB0E01A4F580640F0302D250
:1015A00052004041494154F101046CDD470872F199
:1015B000004250F1000051EB0451A1F580115CBFD5
:1015C00041EA0C01B0BD4CEA05510020B0BD05EA6E
:1015D0001357AC4214BFAF4241E050EA410E1CBF6A
:1015E00052EA430E02E061460020B0BD24423C4472
:1015F0001BD15FEA070EF6D0090302BF01460020A7
:10160000AEF1140EB1FA81F7AEEB070401FA07FE52
:101610000C37C7F1200100FA07F7C8404EEA000E68
:1016200023EA455343F48013A2E733F00043B3FAAF
:1016300083F704BFB2FA82FE77440B3FE41BB7F195
:10164000200E2FBF02FA0EF3BB40C7F1200E22FA84
:101650000EFE38BF43EA0E03BA40641C82E750EA2C
:10166000410E14BF52EA430E6FF000014FF4001711
:1016700017EB430F8ABF194617EB410FB5E74CEA4A
:1016800005510020B0BDD4F10104B4F120070FDAF8
:10169000C4F12007520828BF42F0010210FA07F5F2
:1016A00001FA07F7E1BF2A43E0403843E1400FE089
:1016B000352C98DCC7F1200452EA400220FA07F2E8
:1016C00018BF42F0010231FA07F0A1400A4300219D
:1016D00072F1004250F1000051EB0C01B0BD00006E
:1016E00010B5144600F002F8226010BDC1F30A5391
:1016F00043B14A0012F5001F28D2A3F2FE32A1EB3B
:101700000251704750EA410C20D001F0004C31EA00
:101710000C01B1FA81F204BFB0FA80F3D2180B3A8F
:10172000B2F120032CBF00FA03F1914041EA0C0111
:101730003EBFC2F1200C20FA0CF3194390405242F4
:1017400040F2FD33D21A01EB03517047002270477B
:101750004FF4001C1CEB410F94BF1CEB430F09E03E
:1017600041EA030C50EA4C0C52EA0C0C03D29942A9
:1017700008BF9042704714BF8B42824270470000FE
:101780004FF4001C1CEB410F94BF1CEB430F09E00E
:1017900041EA030C50EA4C0C52EA0C0C03D28B4287
:1017A00008BF8242704714BF9942904270470000C0
:1017B000124254D440F2FF7C1CEA11530FD063450F
:1017C00031D09B1863453CBF01EB0251704701F0DB
:1017D000004141EA0C510020AFF30080704750EA0D
:1017E000410320D001F0004C91EA0C011CD0B1FA69
:1017F00081F30B3B9A420DD9D21A994051EA0C0160
:10180000C3F1200C20FA0CFC61449840531C40F2B8
:10181000FF7CD7E7914041EA0C01C2F1200C20FA8D
:101820000CF3194390407047B0FA80F31533202B26
:10183000E0D3202AEED3203A203B9A4209D9D21A8B
:1018400000FA03F141EA0C010020531C40F2FF7C36
:10185000B8E700FA02F141EA0C0100207047524259
:1018600040F2FF7C1CEA11530DD06345DBD0B2EB94
:10187000030C3CBFA1EB025170470CF1010221EABD
:10188000035141F4801150EA410CCCD001F0004CDE
:10189000352A27DC30B481EA0C01B2F1200309DAE1
:1018A000C2F12003044601FA03F5D0402843D14099
:1018B0009C400CE0C3F12002450020FA03F418BF5D
:1018C00044F0010421FA03F091400C43002174F12B
:1018D000004550F1000051EB0C01244230BC7FF474
:1018E0007BAF70476146002076E70000C1F30A53E2
:1018F00040F2FE329B1A14DDD3F120034FEAE1726D
:1019000008DDC90241EA505141F00040D84080183A
:101910005040704703F2E13010B1D24382F00040F2
:101920007047002070470000C11768B14840401A56
:10193000B0FA80F29040D21CC907C2F5846241EA35
:10194000025202EBD02140057047000070B44FF006
:10195000004591EA030F40F1B5816B40841A71EBA9
:10196000030603D2001BB141121973414FF4001C4E
:101970001CEB410F34BF7CEB430442E00C0DA4EBA5
:101980001356352E4FDC45EAC323DB0A45EAC12155
:10199000C912B6F120050DDD63FA05F6EB4086EAC3
:1019A0000305124218BF45F00105C01851F10001AE
:1019B0000CD213E062FA06F5F2405540F3415A406A
:1019C000B340F3405A408018594107D349085FEAB1
:1019D00030005FEA350528BF45F0010501F58011AB
:1019E000420875F1004250F1000041EB04514E00F5
:1019F00016F5001F70BC38BF70470020090D09059F
:101A000070471CEB410F10D252EA43060BD0BCEBDF
:101A1000410F05D80C0DAB43661E342EB6DD02E037
:101A2000AB438018594170BC704770BC70470000D0
:101A3000F0B540F2FF7581EA030C0CF0004C15EA9A
:101A400011541DBF15EA1357AC42AF42E5E0BC414B
:101A5000C1F31301C3F31303801A994143F48013B4
:101A600004D2641E4000494180185941C90241EA2C
:101A70005051B1FBF3F603FB1611A2FB0675D7EB31
:101A8000C020A94102D2761E80185941C90241EAFC
:101A90005051B1FBF3FE03FB1E11A2FB0E75D7EBF9
:101AA000C020A94103D2AEF1010E8018594189022C
:101AB00041EA9051760546EA8E2EB1FBF3F603FB20
:101AC0001611A2FB0675D7EB8020A94102D2761E23
:101AD00080185941C90241EA50514EEA060EB1FB45
:101AE000F3F603FB1611A2FB0675D7EBC020A94144
:101AF00002D2761E80185941C90241EA5051B1FB09
:101B0000F3F703FB1711A2FB0735D3EBC020A94164
:101B100067F100070CBF004247F0010766F3D527C5
:101B20004FEA1E31B80814F5806412DDBD0775F167
:101B3000004250EB0E5051EB045111F5801F5CBF79
:101B400041EA0C01F0BD4CF07F6141F0E041002022
:101B5000F0BDBD076D0840EA0E5041F48011D4F18C
:101B60000104B4F120060ADAC4F120060200E040C4
:101B700001FA06F3E1401843B24015430EE0342C5D
:101B800013DCC6F1200445EA40056D0820FA06F290
:101B9000154321FA06F0A1400D43002175F10042E2
:101BA00050F1000051EB0C01F0BD00205FEA0C0188
:101BB000F0BDCFB992185B41B3FA83F704BFB2FA14
:101BC00082F6BF190B3FB7F120062FBF02FA06F3CA
:101BD000BB40C7F1200622FA06F638BF3343BA40AD
:101BE0001CB1E419641E33E77F4231F00041B1FAC1
:101BF00081F404BFB0FA80F6A4190B3CB4F12006BE
:101C00002FBF00FA06F1A140C4F1200620FA06F623
:101C100038BF3143A0403C1B1AE7AC421ABF05EA6B
:101C20001357AF4212E050EA41061CBF52EA430686
:101C3000BFE750EA4107304661461CBF41EA055103
:101C4000F0BD52EA430C08BFC143F0BD00204FF481
:101C5000001616EB410F98BF16EB430F08BF16EBAB
:101C6000410F24BFC14305E016EB430F0CBF614693
:101C70004CEA0551F0BD0000400D491840EA8120B2
:101C80000CD2490DA1F58061491C40F0004005DBF4
:101C9000D1F11F0154BFC840C017704700207047E2
:101CA000014648B1B0FA80F18840C91CC1F5846191
:101CB000090501EBD02140057047012000F0B6B8BE
:101CC00070470000841A71EB030604D26E40001BBB
:101CD000B141121973414FF4001C1CEB410F34BF8A
:101CE0007CEB430682E00C0DA4EB1356362E7BDC16
:101CF000012E45EAC32341DC43EA525312BFD2020C
:101D000092025B08240545EAC12141EA5051D2EB19
:101D1000C020994125D407D1B0FA80F610FA06F117
:101D200062D00020203608E0B1FA81F6B140C6F159
:101D3000200220FA02F21143B0404FEAF474B4EBEF
:101D4000465434F001064FEA74040AD8D6F500165A
:101D5000760D04F00044F04061FA06F25040F14084
:101D60004840C00A40EA415021F0004128BF5FEAE4
:101D7000500550F1000044EBD12135E0DB0A45EA83
:101D8000C121C90AB6F120050EDD42EA0242120C59
:101D9000C5F1200603FA06F6EB4042EA06056D425D
:101DA000984161F100010DE062FA06F5F2405540FC
:101DB00063FA06FC82EA0C02F3405A406D429041FD
:101DC00061EB030111F4801F05D1641E620502D08E
:101DD0006D004041494121F48011430875F10043F1
:101DE00050F1000041EB045170BC70471CEB410FF7
:101DF00015D223F0004352EA43060BD04FEA4C0CB5
:101E0000BCEB410F04D80C0D661E342EB7DDEBE79A
:101E1000801A994150EA410608BF0021E4E708BF53
:101E20001CEB430F28BF6FF00001DDE780B5AFF377
:101E30000080024A11001820ABBEFBE7260002001A
:101E400038B5040001D1012032BD00F040F818B9C6
:101E500000F039F800F0C1FBFFE702206870211D97
:101E6000206800F023FA01206870002032BD03D101
:101E7000416C41F400414164026842F00102026099
:101E8000002016BD38B5040001D1012032BD00F09C
:101E90001EF818B900F017F800F0FAFBDDE71CB5E2
:101EA00000F007F800F00AF81CBFDFF8B410884211
:101EB000DDE704460122206800F01FBB2068DFF840
:101EC000A41088427047002129702046704704F111
:101ED0003C0568787047F8B504000E4601D1012032
:101EE000F2BDFFF7F4FF18B9FFF7EDFF00F05BFB61
:101EF0000220687020688168C908C9008160211DBE
:101F0000206800F0D3F92168DFF870038A688F69D0
:101F10000B6A0740B0680743B06947EA0027DFF85B
:101F200060030740F0680743F06947EA002730691B
:101F300047EA0017306A47EA0037706823F0AA03BF
:101F40000343706943EA0013306802438A602068E3
:101F50008761012021680B6268700020F2BD0000DB
:101F600000340140002C014010B5044609B1042999
:101F700001D1012203E000F00CF8012204212068C5
:101F800000F0BBFA2068016841F001010160002007
:101F900010BD20680122002100F0AFBA10B5044640
:101FA000206801698A0715D5C1688A0712D56FF0C4
:101FB0000202026101212177806910F0030F20469F
:101FC00002D000F066FB03E000F064FB00F087F84D
:101FD00000202077206801694A0715D5C1684A07A3
:101FE00012D56FF00402026102212177806910F49A
:101FF000407F204602D000F04CFB03E000F04AFB9B
:1020000000F06DF800202077206801690A0715D5D7
:10201000C1680A0712D56FF0080202610421217716
:10202000C06910F0030F204602D000F032FB03E03D
:1020300000F030FB00F053F80020207720680169A1
:10204000CA0615D5C168CA0612D56FF01002026122
:1020500008212177C06910F4407F204602D000F0AB
:1020600018FB03E000F016FB00F039F800202077A1
:1020700020680169CA0708D5C168CA0705D56FF08D
:1020800001020261204600F006FB206801690A0691
:1020900008D5C1680A0605D56FF0800202612046A6
:1020A00000F0FAFA206801694A0608D5C1684A06B4
:1020B00005D56FF040020261204600F0EEFA20687C
:1020C00001698A060AD5C1688A0607D56FF0200221
:1020D00002612046BDE8104000F0E0BA10BD204685
:1020E00000F0DDBA70B500F065F801D1022070BDD6
:1020F00000F067F832B1042A17D0082A28D00C2A39
:1021000039D04AE03068294600F00AF93068816920
:1021100041F0080100F04AF821F0040181613168C2
:102120008A69286902438A6137E03068294600F0ED
:1021300020F93068816941F4006100F037F821F43A
:10214000806100F033F82A6941EA0221816124E0CC
:102150003068294600F03DF93068C16941F0080156
:1021600000F020F821F00401C1613168CA692869D2
:102170000243CA6111E03068294600F05CF930681A
:10218000C16941F4006100F00DF821F4806100F0B4
:1021900009F82A6941EA0221C1610120607000202A
:1021A000207070BDC1613068C1697047816130685D
:1021B00081697047064606F13C040D4620780128E7
:1021C00070470121217002206070704738B500F01F
:1021D00062F801D1022032BD01222270022060701B
:1021E0002A68DFF898029368034093600868002823
:1021F00037D0102837D0202837D0302837D0402883
:102200002BD050281ED0602820D070280BD0B0F5DD
:10221000805F03D0B0F5005F0CD02CE028688168A7
:10222000C908C9000CE000F02DF82868816841F069
:10223000770105E000F026F82868816841F48041C4
:10224000816018E000F023F8502111E0CA68496865
:10225000286800F02EF960210AE000F018F840210B
:1022600006E0002104E0102102E0202100E03021FE
:10227000286800F030F914E000000000FCFCFFFFCB
:102280000303FFFFCB684A68896828682BE1CA68A6
:1022900049682868FEE0054605F13C0420780128DD
:1022A0007047012060700020207032BDF0B5DFF86B
:1022B000D0C1744F0368744C744D754E604518BF9F
:1022C000B84208D0B0F1804F18BFB04203D0A84246
:1022D00018BFA0420DD14A6823F070031343604534
:1022E00018BFB84207D0B0F1804F1CBFB042A8421F
:1022F00001D0A04203D1CA6823F4407313434A6952
:1023000023F080031343036060458A68C2620A6851
:10231000826212BFB8420969016301214161F0BDC7
:10232000F0B5026A564F574E520852000262056AD3
:102330004368846900F079F825F002051543B84236
:1023400018BFB04207D1CA6825F008051543B84246
:1023500025F0040501D0B04205D14A6923F4407349
:1023600013438A691343436084614968416305628A
:10237000F0BDF0B5026A424E22F010020262B04295
:10238000056A436884690A6824F4E64444EA02243E
:102390008A6825F0200545EA02153A4A18BF90429E
:1023A00008D1CF6825F0800545EA0715B04225F031
:1023B000400501D0904206D14E698A6923F44063FA
:1023C000164343EA8603436084614968816305627A
:1023D000F0BDF0B5026A2A4E22F480720262056AEC
:1023E0004368C46900F021F825F4007545EA022528
:1023F000244AB04218BF904208D1CF6825F4006546
:1024000045EA0725B04225F4806501D0904206D107
:102410004E698A6923F44053164343EA0613436026
:10242000C4614968C1630562F0BD0A6824F07304A1
:1024300014438A68704770B5026A114E22F48052C4
:102440000262B042046A4268C3690D6823F4E6433D
:1024500043EA05238D6824F400541CBF094EB042A2
:1024600044EA053404D14D6922F4804242EA8512DF
:102470004260C36149680164046270BD8800FFFF67
:10248000002C014000340140000C004000080040D6
:102490000004004010B5036A046A64086400046222
:1024A00023F00A03846924F0F00444EA02148461EE
:1024B0002CE010B5036A23F0100303628369046AF9
:1024C00023F4704343EA023324F0A004836144EA16
:1024D0000114046210BD826822F07002114341F0C1
:1024E00007018160704710B5846824F47F4421435C
:1024F000114341EA0321816010BD10B5036A012434
:102500008C40A343036202FA01F1036A194301629A
:1025100010BD000080B55748016841F0010101601D
:10252000026802F0010200920099416841F0805176
:102530004160406800F0805000900098032000F057
:10254000BEF8002200216FF00B0000F0C5F8002259
:1025500000216FF00A0000F0BFF8002200216FF0A8
:10256000090000F0B9F8002200216FF0040000F02B
:10257000B3F8002200216FF0030000F0ADF8002254
:1025800000216FF0010000F0A7F8002200214FF0B9
:10259000FF3000F0A1F83848016821F0E06141F017
:1025A0000071016001BD0068B0F1804F00D070473C
:1025B00018B53248324C85B0016841F00101016024
:1025C0000121006800F001000090002200980191B4
:1025D000022000F049F802203CE081B0006829495F
:1025E000884209D12548016841F004010160006872
:1025F00000F004000090009801B070470068214985
:10260000884200D07047F8B5C021022000910190A7
:10261000039069461C4800F0B5F805B000BD00689D
:102620001A49884200D0704718B51248144C85B03A
:10263000016841F4804101604FF40071006800F4CA
:1026400080400090022200980191032000F00CF8D5
:102650004FF480600021019002910391204601A96E
:1026600000F090F806B010BD0490029201A9204637
:1026700000F088B818100240040001401C1002400D
:102680000008014000080040000C014000380140F3
:102690007047704770477047704770477047704782
:1026A0000901020081B006D52F4A00F00F00104446
:1026B00000F8041C01E02D4B195401B070472C4A5E
:1026C00013684FF6FF0100020B4000F4E06018436E
:1026D000284908431060704738B5254B1C68C4F37F
:1026E0000223C3F10704052C28BF04241D1D072D58
:1026F00034BF0023DB1E012505FA04F4641E2140CB
:10270000994005FA03F35B1E1A401143BDE83440BB
:10271000C6E7012200F01F01174BFFE78A4040097E
:1027200043F82020704710B5401EB0F1807F01D3E0
:10273000012010BD114C60600F214FF0FF30FFF7FA
:10274000AFFF0022A26007202060002010BD0428F7
:102750000A4904D1086840F00400086070470A681C
:1027600022F004020A60704718ED00E000E400E087
:102770000CED00E00000FA0500E100E010E000E0F0
:1027800000F0B4BA2DE9F84F83460F46002080468A
:102790006549664A664B4FF00F094FF0010A3C68E5
:1027A0000AFA08F606EA040EB64540F0AE807C68E8
:1027B0003CB3012C1AD0022C1DD0032C2ED0112C8E
:1027C00016D0122C1AD05B4DAC421CBF5A4DAC42F5
:1027D00017D05A4DAC421CBF594DAC4211D0594D87
:1027E000AC421CBF584DAC420BD018E0F86816E064
:1027F000F868001D13E0F868083010E0F8680C3045
:102800000DE0B86808B9042009E0012819BF0820C4
:10281000CBF814600820CBF8106000E00020BEF573
:10282000807F03D2DC464FEA880404E0A8F1080464
:102830000BF1040CA400DCF8005009FA04F6B543CF
:1028400000FA04F42C43CCF800407C68E4005CD52A
:102850001C6844F001041C604FEA980C1D6805F0E8
:1028600001050095009C52F82C604FEA880404F0A2
:102870000C0409FA04F526EA0505344EB34508BFF1
:10288000002618D0324EB34508BF012613D0314E72
:10289000B34508BF02260ED02F4EB34508BF03260E
:1028A00009D02E4EB34508BF042604D02C4EB345A4
:1028B0000CBF0526062606FA04F42C4342F82C40E9
:1028C0006FEA0E067C68E50304D50D684EEA05053F
:1028D0000D6002E00C6834400C607C68A5034C6815
:1028E0004CBF4EEA040434404C607C68E5028C68BE
:1028F0004CBF4EEA040434408C607C68A502CC686E
:102900004CBF4EEA04043440CC6008F10108B8F131
:102910000F0F7FF644AFBDE8F18F81B002B9090413
:10292000016101B07047000000040140080001404F
:1029300018100240000011100000121000002110B9
:102940000000221000003110000032100008014089
:10295000000C01400010014000140140001801402B
:10296000001C014018B58BB000F046FA00F09FF84B
:10297000DFF80404DFF80444016841F0200101603D
:10298000026802F0200200920099016841F00401FF
:102990000160026802F004020092002200990168BE
:1029A00041F0080101604FF40071006800F0080078
:1029B000009000982046FFF7B0FF4FF4007001210F
:1029C000019002910020022103900491204601A968
:1029D000FFF7D8FEDFF8A8434FF0804020600021C9
:1029E00000206060A06003914FF6FF70E0600591E9
:1029F00000202061A0610691032002900791012030
:102A00000490089009910A91204602A9FFF763FA01
:102A100000B1FEE700F0CDF800B1FEE7002120464E
:102A2000FFF7A2FA04212046FFF79EFAD54CD648BC
:102A3000E06100224FF4E13020620021002060625A
:102A4000A062E0620C20206300206063A06304F1B8
:102A50001C0000F002FA00B1FEE7012204F11801A7
:102A600004F11C0000F07CFA00F05AF8002200216A
:102A70000420FFF731FE0420FFF74BFE0022002167
:102A80001C20FFF729FE1C20FFF743FE0022002137
:102A90002520FFF721FE2520FFF73BFE0022002125
:102AA0001E20FFF719FE1E20FFF733FEFEE700B5DC
:102AB00000218FB001200791059002210C914FF465
:102AC0008030069001220D904FF4E01109920E9192
:102AD00005A800F027FC00B1FEE70F2102200091BD
:102AE000019000214FF480600291039004916846A8
:102AF000022100F0A5FD00B1FEE700F04FFE4FF40B
:102B00007A71B0FBF1F0FFF70EFE0420FFF71FFE15
:102B1000002200214FF0FF30FFF7DEFD0FB000BDB7
:102B20009A4818B59A4C20602C2060608DB0002027
:102B3000A060C820E06000202061A0612046FFF76F
:102B40007FF900B1FEE74FF48050099009A92046B3
:102B5000FFF73CFB00B1FEE72046FFF793F900B119
:102B6000FEE700F026F800B1FEE760200290C821E1
:102B70000020039104900690002202A92046FFF74E
:102B8000B1FA00B1FEE70F200390042202A920460B
:102B9000FFF7A8FA00B1FEE72046FFF72FFD00215E
:102BA0002046FFF77CF904212046FFF778F90EB0A4
:102BB00010BD0021009001912046694600F024BE1E
:102BC0000EB418B502466F4C03AB652104F15C00EE
:102BD00000F040FE82B24FF47A7304F15C0104F11C
:102BE0001C0000F064F911BC5DF810FB2DE9F04108
:102BF000042808BF022914462AD1664D286800F02F
:102C000047FE0646204600F043FE0746314600F0E8
:102C10004DFE80466048414600F088FE394600F08F
:102C2000F1FE07460020314600F080FE394600F0F4
:102C3000E9FE06465948414600F078FE314600F06C
:102C4000E1FE00F051FF00E028602968A142FBD1BD
:102C5000BDE8F08110B500684B494A4C884215D157
:102C6000217E612904BF0FF25810FFF7A9FF217ED2
:102C700073290BD156A0FFF7A3FF00BF5BA0FFF79E
:102C80009FFF962202210420FFF7B0FF04F11801F4
:102C900004F11C00BDE81040012200F061B90FB53D
:102CA00038491020887081B00620C8700A1D0D2098
:102CB00008750A20487501A80368136002A801F18D
:102CC00008020368136003A801F10C020368136093
:102CD00004A801F110020368136016224FF47A73FE
:102CE00001F11C0000F0E3F805B000BD2DE9F0474C
:102CF0002B4C2068401C0A2820603BD1254D294ED2
:102D000028682948294F00212160D6F80080D4F88E
:102D100008908044A7EB0807384600F0F7FE2449E6
:102D200000F004FE8246484600F0F0FE214900F023
:102D3000FDFD514600F066FE82466068381A00F0DC
:102D4000E5FE1D4900F0F2FD0146504600F0AEFDE3
:102D500000F0CAFE2860676040464F44A76000F05C
:102D6000D5FE164C002300222146FFF798FF47F6B8
:102D7000FF703060BDE8F08718100240000C014081
:102D800054010020000000200038014000080040ED
:102D90009401002038080040CDCC4C3ECDCCCC3D39
:102DA000F8010020240000400180FFFF18FCFFFF15
:102DB0008FC2F53DCDAF66394260653B00007AC4F5
:102DC00068656C6C6F2C776F726C64210D0A000063
:102DD0007363616E662054494D78204343527820D6
:102DE000506C757365210D0A00000000636F6E74EE
:102DF000726F6C210D0A000080B50748016841F030
:102E0000100101600320FFF75AFC002000F090FE43
:102E1000FFF780FB002002BD002002402068C1684F
:102E200041F40051C1600020686020206870A870E3
:102E300000207047242068702068C16821F4005188
:102E4000C160204600F0F9B904F138056878704790
:102E5000002129702046FFF7E2BBF8B504000E46BA
:102E6000174601D10120F2BDFFF7EEFF08B9FFF7C9
:102E7000EFFFFFF7DFFF00F010F841612068016904
:102E8000090946EA011606612068C16821F400615B
:102E90000F43C760FFF7C2FFF2BD2068016921F44C
:102EA000904101612068416921F02A0170472DE9B4
:102EB000F843054605F138070C4678782028164671
:102EC00098463CD1002C14BF002E012038D0387811
:102ED000012834D0012139702120002179607870D7
:102EE00000F046FEAE848146EE8403E0296814F8C3
:102EF000010B4860E88C28B3E98C481EE8844B46F7
:102F0000A868CDF80080B0F5805F0DD100F024F8FE
:102F100070B920882968C0F3080048602869002833
:102F200014BF641CA41CE5E700F016F80028DDD0EF
:102F3000032005E0202078700020387000E0022097
:102F4000BDE8F283CDF800804B460022402100F01E
:102F500005F80028EED0EBE7002280212846DBE0D0
:102F600030B500F138039C78202C21D109B1140030
:102F700001D1012030BD1C78012C19D001251D7014
:102F800081628285C28500215960222199700021C9
:102F900019700168CA6842F48072CA6001684A699F
:102FA00042F001024A610068C16841F0200101E07D
:102FB000022030BDC160002030BD416921F04001D8
:102FC0004161606B704738B5044625682968EA6836
:102FD0006B6911F00F0007D188065DD590065BD5AF
:102FE0002046BDE83240DDE0D80702D412F4907FDD
:102FF00052D0C80705D5D00503D5E06B40F00100DD
:10300000E063480705D5D80703D5E06B40F0020020
:10301000E063880705D5D80703D5E06B40F00400CE
:10302000E063080705D5D80703D5E06B40F008003A
:10303000E063E06B00286ED0890604D5900644BF9B
:10304000204600F0AFF820684069E16B0A0701D420
:1030500040061BD5204600F091F8206841694A06D9
:103060000FD5FFF7AAFF60B10FF22D114163606B1E
:1030700000F084FD00284ED0606B416BBDE8344009
:1030800008472046BDE8324000F000BE204600F070
:10309000FDFD0020E06331BD08062CD510062AD5C1
:1030A00094F83900212836D1A168206AB1F5805FF3
:1030B0000DD10188C1F308016960206918B9216A3E
:1030C000881C206207E0206A411C216203E0411C49
:1030D000216200786860E08C401EE08480B2D0B944
:1030E0002068C16821F08001C1602068C16841F09A
:1030F0004001C16031BD48060DD550060BD5E868CA
:1031000020F04000E860202184F839102046BDE816
:10311000324000F0BCBD31BD2DE9F041069C0546B2
:103120000E4690461F46286801683140B1420CBFE8
:1031300001200020404517D114F1010FF3D024B134
:1031400000F016FDC01B8442EDD22868C16821F44E
:10315000D07100F00CF805F1380020214170817029
:1031600000210170032000E00020BDE8F081C16073
:103170002868416949084900416170470168CA6887
:1031800022F49072CA6001684A69520852004A618A
:10319000202180F83A107047406A0021C185C1841F
:1031A00000F074BD80B590F83A10222943D18268AE
:1031B000B2F5805F14D1826A016941B90368596828
:1031C000C1F308011180826A911C816218E00168D4
:1031D0004B6803F0FF031380816A4A1C82620FE090
:1031E00001690029816A04D14A1C8262026853681D
:1031F00005E04A1C82620268536803F07F030B708B
:10320000C18D491EC18589B299B90168CA6822F089
:103210002002CA600168CA6822F48072CA6001682C
:103220004A69520852004A61202180F83A10FFF79B
:1032300011FD002002BD022002BD2DE9F047044629
:10324000642521680A69E06822F4405202430A6159
:103250001926CA6831480240A06802432069024327
:1032600060690243CA604A69A06922F4407202435D
:103270002B484A6181420ED100F09BFA074600F0CC
:1032800098FA804600F095FA814600F092FA82465C
:1032900000F08FFA0DE000F084FA074600F081FAA2
:1032A000804600F07EFA814600F07BFA824600F00C
:1032B00078FA06FB09F9616889007743B7FBF1F2F8
:1032C00006FB08F7B7FBF1F3B9FBF1F7B7FBF5F72E
:1032D00005FB17331B013233B3FBF5F3B2FBF5F2F9
:1032E00003F0F00303EB021306FB0AF74643B7FBB8
:1032F000F1F2B6FBF1F06421B0FBF1F005FB102513
:103300002D0132356420B5FBF0F0216800F00F008C
:10331000C3188B60BDE8F08700000000F3E9FFFFF1
:10332000003801402DE9F8430646DFF89C54307818
:10333000C1074AD5686800F00C00042807D0686807
:1033400000F00C0008280BD16868C10308D5296873
:1033500088033AD57068002840F0C080012069E1F8
:103360007068B0F5803F0FD038B9296821F48031FA
:103370002960286820F4802009E0B0F5A02F296892
:1033800007D141F480212960286840F4803028600A
:1033900006E021F4803129602A6822F480222A6024
:1033A000706868B100F0E4FB04462968880300F106
:1033B000958000F0DDFB001B6528F6D3032039E182
:1033C00000F0D6FB04462868810340F1878000F0B6
:1033D000CFFB001B6528F6D3F0E700F0C9FB001B0C
:1033E000022840F2AA80E9E7306970B10121396012
:1033F00000F0BEFB04462868810700F1DC8000F085
:10340000B7FB001B0228F6D9D8E7386000F0B0FB04
:1034100004462868810765D500F0AAFB001B022836
:10342000F7D9CBE7086000F0A3FB0446686A810780
:1034300077D500F09DFB001B0228F7D9BEE708B93D
:10344000286A09E00528286A06D140F004002862AD
:10345000286A40F0010005E0400840002862286A20
:1034600020F00400286241F28938F06868B100F069
:103470007FFB8146286A810700F1AA8000F078FB73
:10348000A0EB09004045F5D398E700F071FB8146B9
:10349000286A810740F19C8000F06AFBA0EB0900DC
:1034A0004045F5D38AE700F063FB001B022840F299
:1034B000A28083E700F05CFB001B022840F2B5808D
:1034C0007CE700F0B9F804462868810140F1B1803A
:1034D00000F04EFB001B0228F6D96FE73078DFF8CA
:1034E000F47281071BD5686810F00C0F09D068686A
:1034F00000F00C0008287FF477AF6868C1033FF53F
:1035000073AF2968880703D5306901287FF426AF97
:103510002968706921F0F80141EAC0012960317819
:1035200008071DD5B069DFF8B01200283FF47AAF64
:1035300001220A6000F01CFB0446686A81077FF5DF
:103540004CAFDFF888120868C0084FF47A72B0FBFD
:10355000F2F2009200BF0098411E00280091F9D1BC
:103560003078410739D5E8690024C10009D4E869F9
:1035700040F08050E8610124E86900F0805000903C
:103580000098DFF85882D8F80010C8051BD4D8F886
:10359000000040F48070C8F8000000F0E9FA8146AD
:1035A000D8F80010C8050ED400F0E2FAA0EB09002C
:1035B0006528F5D302E72868716920F0F80040EA31
:1035C000C1002860ABE7F06801287FF438AF3FE71F
:1035D0001CB1E86920F08050E861F06948B369687F
:1035E00001F00C0108293FF4B9AE02287FF469AF5D
:1035F00000F022F80446286881013FF554AF306A94
:10360000B0F5803F05D16968B06821F4003101430D
:1036100069606968306A21F474110143706A01437A
:103620006960012000F009F80446286881017FF5EF
:1036300041AF0020BDE8F2830020386600F098BA60
:103640002DE9F843664F05463868894600F00700C3
:10365000484502D200F07AF86CD129785A4C880794
:1036600005D56168A86821F0F00101436160287800
:10367000C10757D56868012802D121688A0303E091
:10368000022803D121688A0103D453E022689107FC
:1036900050D56168890840EA8100606041F289384C
:1036A00000F066FA0646686801280BD1606800F0F1
:1036B0000C00042836D000F05BFA801B4045F5D39F
:1036C00003202DE0022837D1606800F00C000828A4
:1036D00028D000F04DFA801B4045F5D3F0E728785C
:1036E000410705D56168E86821F4E0610143616044
:1036F0002878010706D56068296920F4605040EAFF
:10370000C100606000F02CF862683649C2F3031211
:10371000895C2E4AC8401060002000F009FA0020A1
:10372000BDE8F283386800F007008145D7D200F089
:103730000DF8D4D00120F3E7606810F00C0FF1D041
:1037400000F016FA801B4045F6D3B9E73968C9087E
:1037500049EAC1013960386800F007004845704700
:1037600021491B480A6802F00C03082B00D070475F
:1037700010B500BF1FA4C2F38343D203E35C09D595
:10378000096800BF1FA2C1F340415843515CB0FB20
:10379000F1F010BD18461549484310BD0B480068AC
:1037A00070470A48104A006813681149C3F302229F
:1037B00006E006480C4A006813680D49C3F3C222AC
:1037C000895CC8407047000000100240D000002013
:1037D00000127A0000004242800442420070004021
:1037E00000200240683E00080410024000093D002D
:1037F000D83F000802030405060708090A0B0C0D50
:103800000E0F10100102000030B500F13C031A78D1
:10381000012A01D1022030BD01241C7002225A70FD
:103820000268546824F070045460046865680A688B
:10383000154365600268946824F08004946002680F
:103840009468486804439460012058700020187000
:1038500030BD000008B584B00023039300290EBFDB
:1038600001930190491E0291009301A904AB0748FE
:1038700078441830FCF75CFC019909B100220A7009
:10388000002858BF039805B000BD00BFE3D8FFFF74
:1038900000280AD0B0FA80F18840D1F19D01C90515
:1038A000020672F1004241EB1020704790EA010FCE
:1038B00040F1AE8081F00041421A3CBF801A891865
:1038C0004FF0004CC0F3C752FF2A24D0C1F3C753B6
:1038D00013B3D21AD2F1190327DD4CEA01214CFAB5
:1038E00003F321EA0303D140C20D4CEA0020401843
:1038F00034BF20EA0C004CEA5000D20553EA0063C2
:1039000073EB0C0C52EB1020420012F1807F38BF99
:103910007047C00DC0057047490212BF9A4200EBC4
:103920005120F8E7D2F11703D9D57047FF2212EAE8
:10393000D05C1DBF12EAD153944593422BE09C44C6
:10394000D30780EA01021A4043EA002043EA01213A
:10395000A1FB0030C04238BF40007CF17F010BDB8F
:10396000FE294ADA5B0842EAC15153EA006373F167
:10397000004C51EB10207047D1F1080CDCF1200114
:103980002FDB5B0810FA01F10B4320FA0CF073F106
:1039900000415041704794451CBF02EAD153934205
:1039A00080EA010202F000421DD0400019D0490017
:1039B00017D05BB9634514D00902B1FA81F399407D
:1039C000BCEB030CC00140F00040C1E70002B0FABC
:1039D00080FC10FA0CF0B3EB0C0CC90141F0004173
:1039E000B6E71000704740000AD0490008D010F137
:1039F000807F94BF11F1807F02E042F0FF4070476A
:103A0000D043704790EA010F7FF556AF81F0004137
:103A1000431A4FF000423EBF5340C01AC91800BFBE
:103A2000D3095FEAD05C13EB400F34BFB3EB410F17
:103A300040E07CEBD1530CD342EA012122D8D1EBF8
:103A4000402009D3400A28BF5FEA500140EBCC5028
:103A50007047401A15D04002B0FA80F2521C9040D4
:103A6000400A4FEA3C23B3EB026384BF00EB7300D0
:103A700007E040F400001A16DB07C2F10102D04053
:103A800018437047182BFCDC31FA03F202FA03F3F7
:103A9000591A38BF42F00102D2EB40203CBF40002F
:103AA000ACF1010C5FEACC5CC20572F100414CEB59
:103AB0005020704713EB400F0FD2C94209D0ACEB36
:103AC000D153022B03DB4902172BDDDD70479143F5
:103AD000401AC042D5D10020704713EB410FD0D31C
:103AE0006FF000007047000000180CD2010E7F3903
:103AF00009D4D1F11F015DBFC00140F00040C840B2
:103B00006FF000007047002070470000C21750405F
:103B1000801AB0FA80F10AD08840D1F19D01D20715
:103B200042EAC151020672F1004241EB1020704797
:103B300038B50D4D0D4A297804464FF47A70B0FB24
:103B4000F1F11068B0FBF1F0FEF7EDFD50B9102C6B
:103B500008D2002221464FF0FF30FEF7BDFDAC60D9
:103B6000002032BD012032BDC4000020D000002062
:103B700001484068704700BFC4000020F8B590F8C5
:103B800021200024022A00F1340103D004204860DF
:103B900001245FE00268DFF8C460136823F00E03BD
:103BA00013604FF48077026815686D086D0015602A
:103BB0004FF480320368B3424FF4805519D9DFF8CF
:103BC0009860B34208BF012210D0DFF89460B3427E
:103BD00008BF10220AD0DFF88C60B34208BF3A4613
:103BE00004D0DFF88460B34208BF2A46DFF87C3097
:103BF00027E0DFF87CC063451CD0DFF878C0634560
:103C00001AD0DFF874C0634518D0DFF87070BB427B
:103C10000EBF2A46DFF86850AB4210D0DFF8645080
:103C2000AB4208BF4FF4801209D0B34207D14FF026
:103C3000807204E0012202E0102200E03A46DFF840
:103C400048301A60012280F8212080F8204009685D
:103C500001B188472046F2BD0804024080000240BE
:103C60001C040240300402404404024004040240A8
:103C7000080002401C0002403000024044000240A4
:103C8000580002406C000240040002407047704738
:103C9000F8B5564D534C2868C1064FF0FF3602D494
:103CA0002968480708D5A768A66000F077F8384665
:103CB00000F09FF8002020702868810656D520214A
:103CC00029602078002851D02178012918D1606816
:103CD000401E6060606868B1A06800F089F8A06864
:103CE00000F50060A060696821F00201696000F0E1
:103CF00081F83BE0A6602070304600F079F835E0AE
:103D00002078022807D1696821F004016960002049
:103D100000F06EF828E06068401E60606068A8B13E
:103D2000A168891CA160A068D4E90423120C42EAAE
:103D300003421B0CC4E9042369684908490069600F
:103D4000D4E9042391B200F01EF80FE02078032894
:103D500008BFA06805D020780428A0680CBF801E8A
:103D6000801F00F045F8A66000202070207848B938
:103D70006968C908C90069600021686820F4A0501A
:103D800068602176F1BD10B5164B0022DA61164A43
:103D9000146844F001041460018010BD10B5134A8A
:103DA000104913680020DC0604D5C86940F0020001
:103DB000C861102013685C0705D5CB6943F0010387
:103DC000CB6140F004001369DC0707D5CB6943F0F1
:103DD0000403CB611169490849001161106010BDED
:103DE00000000000D8010020102002400C200240FA
:103DF00070477047074A0021D16107490B6843F0BB
:103E000002030B604860086840F04000086070479B
:103E100000000000D8010020102002400E49086870
:103E200040F0010008604A680C4802404A600B6894
:103E30000B4803400B60086820F4802008604FF4B2
:103E40001F004A6822F4FE024A6088604FF000605A
:103E50000449086070470000001002400000FFF8AD
:103E6000FFFFF6FE08ED00E000000000000000008B
:103E700001020304060708097047FEE7FEE7FEE7B4
:103E8000FEE770477047704780B500F015F8BDE851
:103E90000140FEF775BCFFF7FBBE0448FEF77EB895
:103EA0000348FEF77BB80348FFF78DB854010020A4
:103EB000940100201C00002002494A6808788218FA
:103EC0004A607047C400002019E050F8042BD30763
:103ED00044BFA9F101039A18091F0023042942F8DD
:103EE000043BF9D25FEA817C134604D54FF0000C05
:103EF000A2F800C09B1CC90744BF0021197050F8EC
:103F0000041B0029E1D1704730B50168846842186C
:103F1000416802EB5103C9070BD54C4409E012F983
:103F2000011B12F8015B002904F8015B05D5491C4F
:103F3000F9D19A42F3D10C3030BD491EF1D5F8E7E2
:103F400010B5074979441831064C7C44163404E016
:103F50000A68081D114488470146A142F8D110BDE6
:103F6000080000002400000061FFFFFFB400000013
:103F7000540100200000000091FFFFFF4A010000F3
:103F8000C40000000000002000F00DF8002801D05F
:103F9000FFF7D6FFAFF300800020AFF30080FEF7FD
:103FA000E1FC00F002F80120704700F001B80000C9
:103FB00007463846FDF73AFFFBE700000148804717
:103FC000014800471D3E0008CD3F0008AFF30080C8
:103FD000AFF30080FFF7D8FF0000000001020304E8
:103FE00000002E004300FFF7FEBFFFF7FEBFFFF704
:103FF000FEBFFFF7FEBFFFF7FEBFFFF7FEBFFFF7F5
:10400000FEBFFFF7FEBFFFF7FEBFFFF7FEBFFFF7E4
:10401000FEBFFFF7FEBFFFF7FEBFFFF7FEBFFFF7D4
:10402000FEBFFFF7FEBFFFF7FEBFFFF7FEBFFFF7C4
:10403000FEBFFFF7FEBFFFF7FEBFFFF7FEBFFFF7B4
:10404000FEBFFFF7FEBFFFF7FEBFFFF7FEBFFFF7A4
:10405000FEBFFFF7FEBFFFF7FEBFFFF7FEBFFFF794
:10406000FEBFFFF7FEBFFFF7FEBFFFF7FEBFFFF784
:10407000FEBFFFF7FEBFFFF7FEBFFFF7FEBFFFF774
:10408000FEBFFFF7FEBFFFF7FEBFFFF7FEBFFFF764
:10409000FEBFFFF7FEBFFFF7FEBFFFF7FEBFFFF754
:1040A000FEBFFFF7FEBFFFF7FEBFFFF7FEBFFFF744
:1040B000FEBFFFF7FEBFFFF7FEBFFFF7FEBFFFF734
:1040C000FEBFFFF7FEBF03627910068100BF00004C
:1040D00001F9000010FC001EA24A04E03F0008E0C5
:1040E0003F0008E03F0008E03F0008E03F0008E034
:1040F0003F0008E03F0008F8FF0BE23F0008E03F08
:104100000008E03F0008FAFF060000E43F00080155
:10411000FD0003D4000020D80003D9100008FC00E3
:0841200004C710000801F900BA
:0400000508003FCDE3
:00000001FF
